{
  "contractName": "Dex",
  "abi": [
    {
      "inputs": [],
      "stateMutability": "nonpayable",
      "type": "constructor"
    },
    {
      "anonymous": false,
      "inputs": [
        {
          "indexed": false,
          "internalType": "address",
          "name": "endereco",
          "type": "address"
        }
      ],
      "name": "NewEvent",
      "type": "event"
    },
    {
      "anonymous": false,
      "inputs": [
        {
          "indexed": false,
          "internalType": "uint256",
          "name": "tradeId",
          "type": "uint256"
        },
        {
          "indexed": false,
          "internalType": "uint256",
          "name": "orderId",
          "type": "uint256"
        },
        {
          "indexed": true,
          "internalType": "bytes32",
          "name": "ticker",
          "type": "bytes32"
        },
        {
          "indexed": true,
          "internalType": "address",
          "name": "trader1",
          "type": "address"
        },
        {
          "indexed": true,
          "internalType": "address",
          "name": "trader2",
          "type": "address"
        },
        {
          "indexed": false,
          "internalType": "uint256",
          "name": "amount",
          "type": "uint256"
        },
        {
          "indexed": false,
          "internalType": "uint256",
          "name": "price",
          "type": "uint256"
        },
        {
          "indexed": false,
          "internalType": "uint256",
          "name": "date",
          "type": "uint256"
        }
      ],
      "name": "NewTrade",
      "type": "event"
    },
    {
      "inputs": [],
      "name": "admin",
      "outputs": [
        {
          "internalType": "address",
          "name": "",
          "type": "address"
        }
      ],
      "stateMutability": "view",
      "type": "function",
      "constant": true
    },
    {
      "inputs": [],
      "name": "nextOrderId",
      "outputs": [
        {
          "internalType": "uint256",
          "name": "",
          "type": "uint256"
        }
      ],
      "stateMutability": "view",
      "type": "function",
      "constant": true
    },
    {
      "inputs": [],
      "name": "nextTradeId",
      "outputs": [
        {
          "internalType": "uint256",
          "name": "",
          "type": "uint256"
        }
      ],
      "stateMutability": "view",
      "type": "function",
      "constant": true
    },
    {
      "inputs": [
        {
          "internalType": "bytes32",
          "name": "",
          "type": "bytes32"
        },
        {
          "internalType": "uint256",
          "name": "",
          "type": "uint256"
        },
        {
          "internalType": "uint256",
          "name": "",
          "type": "uint256"
        }
      ],
      "name": "orderBook",
      "outputs": [
        {
          "internalType": "uint256",
          "name": "id",
          "type": "uint256"
        },
        {
          "internalType": "address",
          "name": "trader",
          "type": "address"
        },
        {
          "internalType": "enum Dex.Side",
          "name": "side",
          "type": "uint8"
        },
        {
          "internalType": "bytes32",
          "name": "ticker",
          "type": "bytes32"
        },
        {
          "internalType": "uint256",
          "name": "amount",
          "type": "uint256"
        },
        {
          "internalType": "uint256",
          "name": "filled",
          "type": "uint256"
        },
        {
          "internalType": "uint256",
          "name": "price",
          "type": "uint256"
        },
        {
          "internalType": "uint256",
          "name": "date",
          "type": "uint256"
        }
      ],
      "stateMutability": "view",
      "type": "function",
      "constant": true
    },
    {
      "inputs": [
        {
          "internalType": "uint256",
          "name": "",
          "type": "uint256"
        }
      ],
      "name": "tokenList",
      "outputs": [
        {
          "internalType": "bytes32",
          "name": "",
          "type": "bytes32"
        }
      ],
      "stateMutability": "view",
      "type": "function",
      "constant": true
    },
    {
      "inputs": [
        {
          "internalType": "bytes32",
          "name": "",
          "type": "bytes32"
        }
      ],
      "name": "tokens",
      "outputs": [
        {
          "internalType": "bytes32",
          "name": "ticker",
          "type": "bytes32"
        },
        {
          "internalType": "address",
          "name": "tokenAddress",
          "type": "address"
        }
      ],
      "stateMutability": "view",
      "type": "function",
      "constant": true
    },
    {
      "inputs": [
        {
          "internalType": "address",
          "name": "",
          "type": "address"
        },
        {
          "internalType": "bytes32",
          "name": "",
          "type": "bytes32"
        }
      ],
      "name": "traderBalances",
      "outputs": [
        {
          "internalType": "uint256",
          "name": "",
          "type": "uint256"
        }
      ],
      "stateMutability": "view",
      "type": "function",
      "constant": true
    },
    {
      "inputs": [
        {
          "internalType": "bytes32",
          "name": "ticker",
          "type": "bytes32"
        },
        {
          "internalType": "enum Dex.Side",
          "name": "side",
          "type": "uint8"
        }
      ],
      "name": "getOrders",
      "outputs": [
        {
          "components": [
            {
              "internalType": "uint256",
              "name": "id",
              "type": "uint256"
            },
            {
              "internalType": "address",
              "name": "trader",
              "type": "address"
            },
            {
              "internalType": "enum Dex.Side",
              "name": "side",
              "type": "uint8"
            },
            {
              "internalType": "bytes32",
              "name": "ticker",
              "type": "bytes32"
            },
            {
              "internalType": "uint256",
              "name": "amount",
              "type": "uint256"
            },
            {
              "internalType": "uint256",
              "name": "filled",
              "type": "uint256"
            },
            {
              "internalType": "uint256",
              "name": "price",
              "type": "uint256"
            },
            {
              "internalType": "uint256",
              "name": "date",
              "type": "uint256"
            }
          ],
          "internalType": "struct Dex.Order[]",
          "name": "",
          "type": "tuple[]"
        }
      ],
      "stateMutability": "view",
      "type": "function",
      "constant": true
    },
    {
      "inputs": [],
      "name": "getTokens",
      "outputs": [
        {
          "components": [
            {
              "internalType": "bytes32",
              "name": "ticker",
              "type": "bytes32"
            },
            {
              "internalType": "address",
              "name": "tokenAddress",
              "type": "address"
            }
          ],
          "internalType": "struct Dex.Token[]",
          "name": "",
          "type": "tuple[]"
        }
      ],
      "stateMutability": "view",
      "type": "function",
      "constant": true
    },
    {
      "inputs": [
        {
          "internalType": "bytes32",
          "name": "ticker",
          "type": "bytes32"
        },
        {
          "internalType": "address",
          "name": "tokenAddress",
          "type": "address"
        }
      ],
      "name": "addToken",
      "outputs": [],
      "stateMutability": "nonpayable",
      "type": "function"
    },
    {
      "inputs": [
        {
          "internalType": "uint256",
          "name": "amount",
          "type": "uint256"
        },
        {
          "internalType": "bytes32",
          "name": "ticker",
          "type": "bytes32"
        }
      ],
      "name": "deposit",
      "outputs": [],
      "stateMutability": "nonpayable",
      "type": "function"
    },
    {
      "inputs": [
        {
          "internalType": "uint256",
          "name": "amount",
          "type": "uint256"
        },
        {
          "internalType": "bytes32",
          "name": "ticker",
          "type": "bytes32"
        }
      ],
      "name": "withdraw",
      "outputs": [],
      "stateMutability": "nonpayable",
      "type": "function"
    },
    {
      "inputs": [
        {
          "internalType": "bytes32",
          "name": "ticker",
          "type": "bytes32"
        },
        {
          "internalType": "uint256",
          "name": "amount",
          "type": "uint256"
        },
        {
          "internalType": "uint256",
          "name": "price",
          "type": "uint256"
        },
        {
          "internalType": "enum Dex.Side",
          "name": "side",
          "type": "uint8"
        }
      ],
      "name": "createLimitOrder",
      "outputs": [],
      "stateMutability": "nonpayable",
      "type": "function"
    },
    {
      "inputs": [
        {
          "internalType": "bytes32",
          "name": "ticker",
          "type": "bytes32"
        },
        {
          "internalType": "uint256",
          "name": "amount",
          "type": "uint256"
        },
        {
          "internalType": "enum Dex.Side",
          "name": "side",
          "type": "uint8"
        }
      ],
      "name": "createMarketOrder",
      "outputs": [],
      "stateMutability": "nonpayable",
      "type": "function"
    }
  ],
  "bytecode": "0x608060405234801561001057600080fd5b50600180546001600160a01b03191633179055611e33806100326000396000f3fe608060405234801561001057600080fd5b50600436106100ea5760003560e01c80639776aacf1161008c578063aa6ca80811610066578063aa6ca80814610225578063c9630cb01461023a578063d9c0c9501461024d578063f851a4401461026057600080fd5b80639776aacf146101ec5780639ead7222146101ff578063a8d2021a1461021257600080fd5b806372ce957e116100c857806372ce957e146101565780637f2c624614610181578063813ad08314610196578063904194a31461019f57600080fd5b80630bb431b6146100ef5780632a58b3301461011f57806346e9658b14610136575b600080fd5b6101026100fd366004611af1565b61028b565b604051610116989796959493929190611cc1565b60405180910390f35b61012860025481565b604051908152602001610116565b610149610144366004611a99565b610307565b6040516101169190611ba0565b610128610164366004611a08565b600560209081526000928352604080842090915290825290205481565b61019461018f366004611abc565b61041d565b005b61012860035481565b6101cf6101ad366004611a54565b600460205260009081526040902080546001909101546001600160a01b031682565b604080519283526001600160a01b03909116602083015201610116565b6101946101fa366004611a6d565b610e89565b61012861020d366004611a54565b610f48565b610194610220366004611b5c565b610f69565b61022d6110d6565b6040516101169190611c3f565b610194610248366004611b5c565b611206565b61019461025b366004611b1d565b611356565b600154610273906001600160a01b031681565b6040516001600160a01b039091168152602001610116565b600660205282600052604060002060205281600052604060002081815481106102b357600080fd5b600091825260209091206007909102018054600182015460028301546003840154600485015460058601546006909601549498506001600160a01b0384169750600160a01b90930460ff1695509093909288565b600082815260066020526040812060609183600181111561032a5761032a611da5565b8152602001908152602001600020805480602002602001604051908101604052809291908181526020016000905b82821015610411576000848152602090819020604080516101008101825260078602909201805483526001808201546001600160a01b038116958501959095529293909291840191600160a01b90910460ff16908111156103bb576103bb611da5565b60018111156103cc576103cc611da5565b81526020016002820154815260200160038201548152602001600482015481526020016005820154815260200160068201548152505081526020019060010190610358565b50505050905092915050565b60008381526004602052604090206001015483906001600160a01b031661045f5760405162461bcd60e51b815260040161045690611c8a565b60405180910390fd5b836244414960e81b8114156104a95760405162461bcd60e51b815260206004820152601060248201526f63616e6e6f742074726164652044414960801b6044820152606401610456565b60018360018111156104bd576104bd611da5565b1415610525573360009081526005602090815260408083208884529091529020548411156105255760405162461bcd60e51b8152602060048201526015602482015274746f6b656e2062616c616e636520746f6f206c6f7760581b6044820152606401610456565b6000858152600660205260408120818086600181111561054757610547611da5565b14610553576000610556565b60015b600181111561056757610567611da5565b815260200190815260200160002090506000808690505b82548210801561058e5750600081115b15610ca45760006105ee8484815481106105aa576105aa611dd1565b9060005260206000209060070201600401548585815481106105ce576105ce611dd1565b9060005260206000209060070201600301546119b290919063ffffffff16565b905060008183116105ff5782610601565b815b905061060d83826119b2565b92506106458186868154811061062557610625611dd1565b9060005260206000209060070201600401546119c590919063ffffffff16565b85858154811061065757610657611dd1565b906000526020600020906007020160040181905550336001600160a01b031685858154811061068857610688611dd1565b906000526020600020906007020160010160009054906101000a90046001600160a01b03166001600160a01b03168b7fdb0c486e680ba8026643e6a85f8d157b5e7bcd4b32b54d564542570a9eb204166003548989815481106106ed576106ed611dd1565b906000526020600020906007020160000154868b8b8154811061071257610712611dd1565b6000918252602091829020600560079092020101546040805195865291850193909352830152606082015242608082015260a00160405180910390a4600188600181111561076257610762611da5565b14156109a7573360009081526005602090815260408083208d845290915290205461078d90826119b2565b3360009081526005602090815260408083208e8452909152902055845461080c906107e5908790879081106107c4576107c4611dd1565b906000526020600020906007020160050154836119d190919063ffffffff16565b3360009081526005602090815260408083206244414960e81b8452909152902054906119c5565b3360009081526005602081815260408084206244414960e81b8552909152822092909255865461088b928492909189908990811061084c5761084c611dd1565b60009182526020808320600160079093020191909101546001600160a01b0316835282810193909352604091820181208f8252909252902054906119c5565b600560008787815481106108a1576108a1611dd1565b60009182526020808320600160079093020191909101546001600160a01b0316835282810193909352604091820181208e82529092529020558454610951906108f6908790879081106107c4576107c4611dd1565b6005600088888154811061090c5761090c611dd1565b60009182526020808320600160079093020191909101546001600160a01b0316835282810193909352604091820181206244414960e81b8252909252902054906119b2565b6005600087878154811061096757610967611dd1565b60009182526020808320600160079093020191909101546001600160a01b0316835282810193909352604091820181206244414960e81b82529092529020555b60008860018111156109bb576109bb611da5565b1415610c7a576109f78585815481106109d6576109d6611dd1565b906000526020600020906007020160050154826119d190919063ffffffff16565b3360009081526005602090815260408083206244414960e81b84529091529020541015610a5c5760405162461bcd60e51b81526020600482015260136024820152726461692062616c616e636520746f6f206c6f7760681b6044820152606401610456565b3360009081526005602090815260408083208d8452909152902054610a8190826119c5565b3360009081526005602090815260408083208e84529091529020558454610adf90610ab8908790879081106107c4576107c4611dd1565b3360009081526005602090815260408083206244414960e81b8452909152902054906119b2565b3360009081526005602081815260408084206244414960e81b85529091528220929092558654610b5e9284929091899089908110610b1f57610b1f611dd1565b60009182526020808320600160079093020191909101546001600160a01b0316835282810193909352604091820181208f8252909252902054906119b2565b60056000878781548110610b7457610b74611dd1565b60009182526020808320600160079093020191909101546001600160a01b0316835282810193909352604091820181208e82529092529020558454610c2490610bc9908790879081106107c4576107c4611dd1565b60056000888881548110610bdf57610bdf611dd1565b60009182526020808320600160079093020191909101546001600160a01b0316835282810193909352604091820181206244414960e81b8252909252902054906119c5565b60056000878781548110610c3a57610c3a611dd1565b60009182526020808320600160079093020191909101546001600160a01b0316835282810193909352604091820181206244414960e81b82529092529020555b60038054906000610c8a83611d74565b91905055508380610c9a90611d74565b945050505061057e565b600091505b825482108015610cfe5750828281548110610cc657610cc6611dd1565b906000526020600020906007020160030154838381548110610cea57610cea611dd1565b906000526020600020906007020160040154145b15610e7f57815b8354610d1390600190611d46565b811015610e105783610d26826001611d0f565b81548110610d3657610d36611dd1565b9060005260206000209060070201848281548110610d5657610d56611dd1565b6000918252602090912082546007909202019081556001808301805482840180546001600160a01b031981166001600160a01b039093169283178255925460ff600160a01b91829004169491936001600160a81b03191690921791908490811115610dc357610dc3611da5565b021790555060028201548160020155600382015481600301556004820154816004015560058201548160050155600682015481600601559050508080610e0890611d74565b915050610d05565b5082805480610e2157610e21611dbb565b6000828152602081206007600019909301928302018181556001810180546001600160a81b03191690556002810182905560038101829055600481018290556005810182905560060155905581610e7781611d74565b925050610ca9565b5050505050505050565b6001546001600160a01b03163314610ed05760405162461bcd60e51b815260206004820152600a60248201526937b7363c9030b236b4b760b11b6044820152606401610456565b6040805180820182528381526001600160a01b039283166020808301918252600086815260049091529283209151825551600191820180546001600160a01b03191691909416179092558054918201815580527f290decd9548b62a8d60345a988386fc84ba6bc95484008f6362f93160ef3e5630155565b60008181548110610f5857600080fd5b600091825260209091200154905081565b60008181526004602052604090206001015481906001600160a01b0316610fa25760405162461bcd60e51b815260040161045690611c8a565b336000908152600560209081526040808320858452909152902054831115610ffe5760405162461bcd60e51b815260206004820152600f60248201526e62616c616e636520746f6f206c6f7760881b6044820152606401610456565b33600090815260056020908152604080832085845290915290205461102390846119b2565b3360008181526005602090815260408083208784528252808320949094556004908190529083902060010154925163a9059cbb60e01b815290810191909152602481018590526001600160a01b039091169063a9059cbb90604401602060405180830381600087803b15801561109857600080fd5b505af11580156110ac573d6000803e3d6000fd5b505050506040513d601f19601f820116820180604052508101906110d09190611a32565b50505050565b600080546060919067ffffffffffffffff8111156110f6576110f6611de7565b60405190808252806020026020018201604052801561113b57816020015b60408051808201909152600080825260208201528152602001906001900390816111145790505b50905060005b6000548110156112005760405180604001604052806004600080858154811061116c5761116c611dd1565b90600052602060002001548152602001908152602001600020600001548152602001600460008085815481106111a4576111a4611dd1565b600091825260208083209091015483528201929092526040019020600101546001600160a01b0316905282518390839081106111e2576111e2611dd1565b602002602001018190525080806111f890611d74565b915050611141565b50919050565b60008181526004602052604090206001015481906001600160a01b031661123f5760405162461bcd60e51b815260040161045690611c8a565b6000828152600460208190526040918290206001015491516323b872dd60e01b81523391810191909152306024820152604481018590526001600160a01b03909116906323b872dd90606401602060405180830381600087803b1580156112a557600080fd5b505af11580156112b9573d6000803e3d6000fd5b505050506040513d601f19601f820116820180604052508101906112dd9190611a32565b5033600090815260056020908152604080832085845290915290205461130390846119c5565b33600090815260056020908152604080832086845282529182902092909255513081527f0227e3b2fb10ea87b3ce0fe9b23554ad992c666dd128c13c0a6ef2d73dd80ba0910160405180910390a1505050565b60008481526004602052604090206001015484906001600160a01b031661138f5760405162461bcd60e51b815260040161045690611c8a565b846244414960e81b8114156113d95760405162461bcd60e51b815260206004820152601060248201526f63616e6e6f742074726164652044414960801b6044820152606401610456565b60018360018111156113ed576113ed611da5565b141561145a573360009081526005602090815260408083208984529091529020548511156114555760405162461bcd60e51b8152602060048201526015602482015274746f6b656e2062616c616e636520746f6f206c6f7760581b6044820152606401610456565b6114c9565b61146485856119d1565b3360009081526005602090815260408083206244414960e81b845290915290205410156114c95760405162461bcd60e51b81526020600482015260136024820152724441492062616c616e636520746f6f206c6f7760681b6044820152606401610456565b6000868152600660205260408120818560018111156114ea576114ea611da5565b81526020019081526020016000209050806040518061010001604052806002548152602001336001600160a01b0316815260200186600181111561153057611530611da5565b815260208082018b905260408083018b9052600060608401819052608084018b90524260a0909401939093528454600180820187559584529282902084516007909402019283559083015182850180546001600160a01b031981166001600160a01b03909316928317825592850151949593949390926001600160a81b03191690911790600160a01b9084908111156115cb576115cb611da5565b0217905550606082015160028201556080820151600382015560a0820151600482015560c0820151600582015560e0909101516006909101558054600090611614576000611622565b815461162290600190611d46565b90505b801561199357600085600181111561163f5761163f611da5565b14801561169d575081818154811061165957611659611dd1565b906000526020600020906007020160050154826001836116799190611d46565b8154811061168957611689611dd1565b906000526020600020906007020160050154115b156116a757611993565b60018560018111156116bb576116bb611da5565b14801561171957508181815481106116d5576116d5611dd1565b906000526020600020906007020160050154826001836116f59190611d46565b8154811061170557611705611dd1565b906000526020600020906007020160050154115b1561172357611993565b600082611731600184611d46565b8154811061174157611741611dd1565b60009182526020918290206040805161010081018252600793909302909101805483526001808201546001600160a01b038116958501959095529293909291840191600160a01b90910460ff169081111561179e5761179e611da5565b60018111156117af576117af611da5565b81526020016002820154815260200160038201548152602001600482015481526020016005820154815260200160068201548152505090508282815481106117f9576117f9611dd1565b9060005260206000209060070201836001846118159190611d46565b8154811061182557611825611dd1565b6000918252602090912082546007909202019081556001808301805482840180546001600160a01b031981166001600160a01b039093169283178255925460ff600160a01b91829004169491936001600160a81b0319169092179190849081111561189257611892611da5565b02179055506002820154816002015560038201548160030155600482015481600401556005820154816005015560068201548160060155905050808383815481106118df576118df611dd1565b6000918252602091829020835160079092020190815590820151600180830180546001600160a01b039093166001600160a01b031984168117825560408601519391926001600160a81b03199092161790600160a01b90849081111561194757611947611da5565b0217905550606082015160028201556080820151600382015560a0820151600482015560c0820151600582015560e0909101516006909101558161198a81611d5d565b92505050611625565b600280549060006119a383611d74565b91905055505050505050505050565b60006119be8284611d46565b9392505050565b60006119be8284611d0f565b60006119be8284611d27565b80356001600160a01b03811681146119f457600080fd5b919050565b8035600281106119f457600080fd5b60008060408385031215611a1b57600080fd5b611a24836119dd565b946020939093013593505050565b600060208284031215611a4457600080fd5b815180151581146119be57600080fd5b600060208284031215611a6657600080fd5b5035919050565b60008060408385031215611a8057600080fd5b82359150611a90602084016119dd565b90509250929050565b60008060408385031215611aac57600080fd5b82359150611a90602084016119f9565b600080600060608486031215611ad157600080fd5b8335925060208401359150611ae8604085016119f9565b90509250925092565b600080600060608486031215611b0657600080fd5b505081359360208301359350604090920135919050565b60008060008060808587031215611b3357600080fd5b843593506020850135925060408501359150611b51606086016119f9565b905092959194509250565b60008060408385031215611b6f57600080fd5b50508035926020909101359150565b60028110611b9c57634e487b7160e01b600052602160045260246000fd5b9052565b602080825282518282018190526000919060409081850190868401855b82811015611c3257815180518552868101516001600160a01b03168786015285810151611bec87870182611b7e565b50606081810151908601526080808201519086015260a0808201519086015260c0808201519086015260e090810151908501526101009093019290850190600101611bbd565b5091979650505050505050565b602080825282518282018190526000919060409081850190868401855b82811015611c32578151805185528601516001600160a01b0316868501529284019290850190600101611c5c565b60208082526019908201527f7468697320746f6b656e20646f6573206e6f7420657869737400000000000000604082015260600190565b8881526001600160a01b03881660208201526101008101611ce56040830189611b7e565b6060820196909652608081019490945260a084019290925260c083015260e0909101529392505050565b60008219821115611d2257611d22611d8f565b500190565b6000816000190483118215151615611d4157611d41611d8f565b500290565b600082821015611d5857611d58611d8f565b500390565b600081611d6c57611d6c611d8f565b506000190190565b6000600019821415611d8857611d88611d8f565b5060010190565b634e487b7160e01b600052601160045260246000fd5b634e487b7160e01b600052602160045260246000fd5b634e487b7160e01b600052603160045260246000fd5b634e487b7160e01b600052603260045260246000fd5b634e487b7160e01b600052604160045260246000fdfea264697066735822122061d748123030722e55aa7b00a10a64ad8bb869756eb22fbe2ce63abaa8f496ce64736f6c63430008060033",
  "immutableReferences": {},
  "source": "// SPDX-License-Identifier: MIT\npragma solidity ^0.8.6;\n\nimport '@openzeppelin/contracts/token/ERC20/IERC20.sol';\nimport '@openzeppelin/contracts/utils/math/SafeMath.sol';\n\ncontract Dex {\n    \n    using SafeMath for uint;\n\n    bytes32 constant DAI = bytes32(\"DAI\");\n    bytes32[] public tokenList;\n    address public admin;\n    uint public nextOrderId;\n    uint public nextTradeId;\n\n   enum Side {\n        BUY,\n        SELL\n    }\n\n    struct Token {\n        bytes32 ticker;\n        address tokenAddress;\n    }\n\n    // Order Limit:\n    //  - Buy <= LIMIT\n    // - Sell >= LIMIT\n    struct Order {\n        uint id;\n        address trader;\n        Side side;\n        bytes32 ticker; // eh a identificacao do token, por exemplo: DAI, BTC, ETH\n        uint amount;\n        uint filled;\n        uint price;\n        uint date;\n    }\n\n    mapping(bytes32 => Token) public tokens;\n    mapping(address => mapping(bytes32 => uint)) public traderBalances;\n    // o uint ser o Side. No Solidity podemos converter o enum para inteiro desta forma:\n    // uint(Side.SELL)\n    // uint(Side.BUY)\n    mapping(bytes32 => mapping(uint => Order[])) public orderBook;\n\n    // indexed: like PostgresSQL or MongoDB index?\n    event NewTrade(\n        uint tradeId,\n        uint orderId,\n        bytes32 indexed ticker,\n        address indexed trader1,\n        address indexed trader2,\n        uint amount,\n        uint price,\n        uint date\n    );\n\n    constructor() {\n        admin = msg.sender;\n    }\n\n    function getOrders(\n        bytes32 ticker, \n        Side side\n    ) external view returns (Order[] memory) {\n       return orderBook[ticker][uint(side)];\n    }\n\n    function getTokens() external view returns (Token[] memory) {\n        Token[] memory _tokens = new Token[](tokenList.length);\n        for (uint i = 0; i < tokenList.length; i++) {\n            _tokens[i] = Token(\n                tokens[tokenList[i]].ticker,\n                tokens[tokenList[i]].tokenAddress\n            );\n        }\n        return _tokens;\n    }\n\n    function addToken(\n        bytes32 ticker, \n        address tokenAddress\n    ) external onlyAdmin() {\n        tokens[ticker] = Token(ticker, tokenAddress);\n        tokenList.push(ticker);\n    }\n\n    event NewEvent(\n        address endereco\n    );\n    function deposit(\n        uint amount, \n        bytes32 ticker\n    ) external tokenExist(ticker) {\n        // address(this): address contract instance\n        // o amount est sendo enviado para o contrato, dessa forma o contrato pode fazer emprstimos e etc\n        IERC20(tokens[ticker].tokenAddress).transferFrom(\n            msg.sender,\n            address(this),\n            amount\n        );\n        traderBalances[msg.sender][ticker] = traderBalances[msg.sender][ticker].add(amount);\n        emit NewEvent(address(this));\n    }\n\n    function withdraw(\n        uint amount, \n        bytes32 ticker\n    ) external tokenExist(ticker) {\n        // ticker representa a moeda, tipo DAI, ETH, BTC\n        // aqui est sendo verificado se o usurio que t executando a movimentao para retirada do dinheiro (withdraw)\n        // possui na moeda escolhida (o ticker) um total que  maior ou igual ao valor que ele deseja retirar da conta\n        require(\n            traderBalances[msg.sender][ticker] >= amount,\n            \"balance too low\"\n        );\n        traderBalances[msg.sender][ticker] = traderBalances[msg.sender][ticker].sub(amount);\n        IERC20(tokens[ticker].tokenAddress).transfer(msg.sender, amount);\n    }\n\n    function createLimitOrder(\n        bytes32 ticker,\n        uint amount,\n        uint price,\n        Side side\n    ) external tokenExist(ticker) tokenIsNotDai(ticker) {\n        if (side == Side.SELL) {\n            // aqui  verificado se o usurio (msg.sender) possui na moeda escolhida (ticker)\n            // o montante que ele deseja vender\n            require(\n                traderBalances[msg.sender][ticker] >= amount,\n                \"token balance too low\"\n            );\n        } else {\n            // em caso de compra,  verificado se o contrato (address(this)) possui o montante\n            // que o usurio deseja comprar\n            require(\n                traderBalances[msg.sender][DAI] >= amount.mul(price),\n                \"DAI balance too low\"\n            );\n        }\n        Order[] storage orders = orderBook[ticker][uint(side)];\n        orders.push(\n            Order(\n                nextOrderId,\n                msg.sender,\n                side,\n                ticker,\n                amount,\n                0,\n                price,\n                block.timestamp\n            )\n        );\n        //TODO: Refactor this method! Use best practices!\n        uint i = orders.length > 0 ? orders.length - 1 : 0;\n        while (i > 0) {\n            if (side == Side.BUY && orders[i - 1].price > orders[i].price) {\n                break;\n            }\n            if (side == Side.SELL && orders[i - 1].price > orders[i].price) {\n                break;\n            }\n            Order memory order = orders[i - 1];\n            orders[i - 1] = orders[i];\n            orders[i] = order;\n            i--;\n        }\n        nextOrderId++;\n    }\n\n    function createMarketOrder(\n        bytes32 ticker,\n        uint amount,\n        Side side\n    ) external tokenExist(ticker) tokenIsNotDai(ticker) {\n        if (side == Side.SELL) {\n            require(\n                traderBalances[msg.sender][ticker] >= amount,\n                \"token balance too low\"\n            );\n        }\n\n        Order[] storage orders = orderBook[ticker][\n            uint(side == Side.BUY ? Side.SELL : Side.BUY)\n        ];\n        uint i;\n        uint remaining = amount;\n        while (i < orders.length && remaining > 0) {\n            uint available = orders[i].amount.sub(orders[i].filled);\n            uint matched = (remaining > available) ? available : remaining;\n            remaining = remaining.sub(matched);\n             orders[i].filled = orders[i].filled.add(matched);\n            emit NewTrade(\n                nextTradeId,\n                orders[i].id,\n                ticker,\n                orders[i].trader,\n                msg.sender,\n                matched,\n                orders[i].price,\n                block.timestamp\n            );\n            if (side == Side.SELL) {\n                traderBalances[msg.sender][ticker] = traderBalances[msg.sender][ticker].sub(matched);\n                traderBalances[msg.sender][DAI] = traderBalances[msg.sender][DAI].add(matched.mul(orders[i].price));\n                traderBalances[orders[i].trader][ticker] = traderBalances[orders[i].trader][ticker].add(matched);\n                traderBalances[orders[i].trader][DAI] = traderBalances[orders[i].trader][DAI].sub(matched.mul(orders[i].price));\n            }\n            if (side == Side.BUY) {\n                require(\n                    traderBalances[msg.sender][DAI] >= matched.mul(orders[i].price),\n                    'dai balance too low'\n                );\n                traderBalances[msg.sender][ticker] = traderBalances[msg.sender][ticker].add(matched);\n                traderBalances[msg.sender][DAI] = traderBalances[msg.sender][DAI].sub(matched.mul(orders[i].price));\n                traderBalances[orders[i].trader][ticker] = traderBalances[orders[i].trader][ticker].sub(matched);\n                traderBalances[orders[i].trader][DAI] = traderBalances[orders[i].trader][DAI].add(matched.mul(orders[i].price));\n            }\n            nextTradeId++;\n            i++;\n        }\n\n        i = 0;\n        while (i < orders.length && orders[i].filled == orders[i].amount) {\n            for (uint j = i; j < orders.length - 1; j++) {\n                orders[j] = orders[j + 1];\n            }\n            orders.pop();\n            i++;\n        }\n    }\n\n    modifier tokenIsNotDai(bytes32 ticker) {\n        require(ticker != DAI, \"cannot trade DAI\");\n        _;\n    }\n\n    modifier tokenExist(bytes32 ticker) {\n        // address(0) ou 0x00  o valor padro para inicializar uma varivel do tipo address\n        require(\n            tokens[ticker].tokenAddress != address(0),\n            \"this token does not exist\"\n        );\n        _;\n    }\n\n    modifier onlyAdmin() {\n        require(msg.sender == admin, \"only admin\");\n        _;\n    }\n}\n",
  "sourcePath": "/Users/aguirresabino/Dev/blockchain/dapps/tokens/src/contracts/Dex.sol",
  "compiler": {
    "name": "solc",
    "version": "0.8.6+commit.11564f7e.Emscripten.clang"
  },
  "schemaVersion": "3.4.2",
  "updatedAt": "2021-07-29T03:05:50.536Z",
  "networkType": "ethereum",
  "devdoc": {
    "kind": "dev",
    "methods": {},
    "version": 1
  },
  "userdoc": {
    "kind": "user",
    "methods": {},
    "version": 1
  }
}